:020000040000FA
:0400000000EF10F00D
:020004000000FA
:0400080004EF10F001
:040018000CEF10F0E9
:04001C001100D8CF28
:1000200001F3E8CF00F3E0CF02F302C3E0FF00C327
:10003000E8FF01C3D8FF100000D0F80E100F0DD05C
:100040001E0E040D300E040DE60E100D06D00F0E20
:10005000350B0F0E350A0F0E3509FFD735EC00F0C2
:100060008D8435EC00F08D9412000F0E036FFF0E9F
:10007000046F042F39EF00F0032F37EF00F0120068
:10008000100E056FFF0E046FFF0E036F032F46EF78
:1000900000F0042F44EF00F0052F42EF00F01200B3
:1000A000086B076B066B0A6B0A2B0A0E095FFCE2F2
:1000B000092709C308F30A070AC309F30A6B0A2BC5
:1000C0000A0E095FFCE2092709C307F30A070AC3FE
:0400D00006F3120021
:042000001CEF00F0E1
:042008000EEF00F0E7
:042018000FEF00F0D6
:00000001FF
