:020000040000FA
:0400000000EF10F00D
:0400080004EF10F001
:040018000CEF10F0E9
:04001C001100D8CF28
:1000200001F3E8CF00F3E0CF02F302C3E0FF00C327
:10003000E8FF01C3D8FF100071D0956A0A0EC16EA7
:10004000956A9490969096948B80FF0E056FB6EC0F
:1000500000F0052F27EF00F08D908D94010E8C6E2F
:10006000AFEC00F0380E8C6EAFEC00F00C0E8C6E26
:10007000AFEC00F0060E8C6EAFEC00F0010E8C6E53
:10008000AFEC00F08D908D94800E8C6EAFEC00F094
:100090008D808D94350E0C6F0CC38CFFAFEC00F08F
:1000A0000C2B0C513908F8E18D908D94A80E8C6EB4
:1000B000AFEC00F08D808D94450E0C6F0CC38CFF5F
:1000C000AFEC00F00C2B0C514908F8E147D08D90B3
:1000D0008D94800E8C6EAFEC00F08D808D94300E80
:1000E0000C6F0CC38CFFAFEC00F00C2B0C2B0C51E5
:1000F0003908F7E18D908D94A80E8C6EAFEC00F06E
:100100008D808D94310E0C6F0CC38CFFAFEC00F022
:100110000C2B0C2B0C513808F7E120D08D908D94CE
:10012000800E8C6EAFEC00F08D808D94610E0C6FA4
:100130000CC38CFFAFEC00F00C2B0C51720801E0EB
:1001400009D08D908D94A80E8C6EAFEC00F08D8050
:100150008D9400D00C517A08EBE100D0FFD7B6ECBB
:1001600000F08D84B6EC00F08D9412000F0E036F3A
:10017000FF0E046F042FBAEF00F0032FB8EF00F06A
:100180001200100E056FFF0E046FFF0E036F032F9A
:10019000C7EF00F0042FC5EF00F0052FC3EF00F00C
:1001A0001200086B076B066B0A6B0A2B0A0E095FBD
:1001B000FCE2092709C308F30A070AC309F30A6B1B
:1001C0000A2B0A0E095FFCE2092709C307F30A0795
:0601D0000AC306F3120051
:0620000003011CEF00F0DB
:022006000000D8
:042008000EEF00F0E7
:042018000FEF00F0D6
:00000001FF
